:020000040800F2
:10000000900600202902000831020008330200088F
:10001000350200083702000839020008000000001D
:100020000000000000000000000000003B0200088B
:100030003D020008000000003F02000841020008E5
:10004000430200084302000843020008430200087C
:10005000430200084302000843020008430200086C
:10006000430200084302000843020008430200085C
:10007000430200084302000843020008430200084C
:10008000430200084302000843020008430200083C
:10009000430200084302000843020008430200082C
:1000A000430200084302000843020008430200081C
:1000B000430200084302000843020008430200080C
:1000C00043020008430200084302000843020008FC
:1000D00043020008430200084302000843020008EC
:1000E00043020008430200084302000843020008DC
:1000F00043020008430200084302000843020008CC
:1001000043020008430200084302000843020008BB
:1001100043020008430200084302000843020008AB
:10012000430200084302000843020008430200089B
:10013000430200084302000843020008430200088B
:10014000430200084302000843020008430200087B
:10015000430200084302000843020008430200086B
:10016000430200084302000843020008430200085B
:10017000430200084302000843020008430200084B
:10018000430200084302000800F002F800F03CF8C7
:100190000AA090E8000C82448344AAF10107DA45E2
:1001A00001D100F031F8AFF2090EBAE80F0013F0F8
:1001B000010F18BFFB1A43F001031847BC090000E8
:1001C000DC090000103A24BF78C878C1FAD8520779
:1001D00024BF30C830C144BF04680C6070470000C1
:1001E0000023002400250026103A28BF78C1FBD840
:1001F000520728BF30C148BF0B6070471FB500F0E1
:10020000B6FC1FBD10B510BD00F07BFC1146FFF71A
:10021000F5FF00F029F800F099FC03B4FFF7F2FFB6
:1002200003BC00F09DFC00000948804709480047D6
:10023000FEE7FEE7FEE7FEE7FEE7FEE7FEE7FEE796
:10024000FEE7FEE704480549054A064B70470000F3
:100250008303000889010008900000209006002018
:1002600090020020900200200121082000F079FB7C
:100270000121084600F075FB154C4FF4704601272C
:100280002660277100256571DFF84880A571E5714A
:100290002146404600F04EF92760257102200E4DA0
:1002A000E0712146284600F045F90C4C47460121F3
:1002B000284600F0A5F90028F9D021460220401C6C
:1002C0008842FCD33146384600F0B9F9EFE7000028
:1002D00000000020000C02400000024080969800C0
:1002E0000CB500205449019000900A6842F4803215
:1002F0000A604FF4A0430A6802F400320092019AA7
:10030000521C0192009A12B9019A9A42F3D10A68DA
:10031000920334D50120009047484030026842F0F3
:10032000805202604548026842F4404202604248FE
:10033000083002680260026842F40042026002680B
:1003400042F4A0520260031F3D4A1A600A6842F05C
:1003500080720A600A689201FCD53A4A40F205713F
:100360001160016821F003010160016841F00201A0
:1003700001600168C1F381010229FAD10CBD00902E
:100380000CBD314810B5016841F4700101602A4884
:10039000016841F001010160274A00210832116023
:1003A00002682A4B1A400260031D294A1A6002683B
:1003B00022F48022026020480C300160FFF790FF99
:1003C00021494FF000608039086010BD70B51A4CAB
:1003D000083420681F4A10F00C011F4804D0551043
:1003E000042903D0082903D002601BE0056019E04E
:1003F0001149091D0B68C3F380560B6803F03F03D6
:1004000016B1B5FBF3F201E0B2FBF3F20B68096839
:10041000C3F388135A43C1F30141491C4900B2FB9D
:10042000F1F1016021680C4AC1F30311121D515C06
:100430000268CA40026070BD00380240007000408F
:1004400008544007003C024088ED00E0FFFFF6FE44
:10045000103000240024F40008000020824910B568
:10046000884206D10121084600F0ADFA00210120A2
:100470005BE07E49884206D10121022000F0A3FA08
:100480000021022051E07A49884206D1012104204E
:1004900000F099FA0021042047E07649884206D10D
:1004A0000121082000F08FFA002108203DE0724968
:1004B000884206D10121102000F085FA0021102089
:1004C00033E06E49884206D10121202000F07BFAFA
:1004D0000021202029E06A49884206D101214020DC
:1004E00000F071FA002140201FE06649884206D1E1
:1004F0000121802000F067FA0021802015E0624988
:10050000884202D1012184150AE06049884202D163
:100510000121441504E05E4988420AD101210415F5
:10052000204600F050FA00212046BDE8104000F0BF
:100530004ABA10BDF0B50023012403270D6804FA60
:1005400003F21540954242D1D0F800C05E0007FA90
:1005500006F52CEA050CC0F800C091F804C0D0F8EC
:1005600000E00CFA06FC4CEA0E0CC0F800C091F852
:1005700004C0BCF1010F02D0BCF1020F1FD1D0F8B2
:1005800008C02CEA050CC0F808C091F805C0D0F8E6
:1005900008E00CFA06FC4CEA0E0CC0F808C0D0F8D3
:1005A00004C02CEA020CC0F804C0426891F806C0EE
:1005B0000CFA03FC1FFA8CFC42EA0C024260C2688F
:1005C000AA43C260CA79C568B2402A43C2605B1CB4
:1005D000102BB3D3F0BD4FF6FF7101600021017104
:1005E00041718171C171704708B541F48032009248
:1005F000C261C1610099C161C169C069009008BD53
:100600000246002012690A4200D0012070470069AA
:1006100080B270470246002052690A4200D0012091
:100620007047406980B270470183704741837047CB
:100630000AB1018370474183704741617047426945
:100640004A40426170474B07DB0E9A40C90810B51B
:1006500000EB8100016A0F249C40A1430162016A02
:100660001143016210BD000000000240000402407E
:1006700000080240000C024000100240001402403A
:1006800000180240001C02400020024000240240EA
:1006900000280240F748016841F001010160F54A75
:1006A0000021083211600268F34B1A400260031DFA
:1006B000F24A1A60EF4BF24A84331A60EF4A103A5A
:1006C0001B1D1A60026822F480220260E9480C3087
:1006D0000160181D01607047E6490022891C0A70FC
:1006E0000870704702460020510901290CD00229E8
:1006F0000CD0E0497431096802F01F0201239340D5
:100700000B4200D001207047DA49F4E7D949703133
:10071000F1E718B500204FF4A04400903120FFF716
:10072000E1FF0099491C0091A14201D00028F5D0B9
:100730003120FFF7D7FF002800D0012018BDCD4998
:100740000A6822F0F80242EAC00008607047CD490A
:1007500008607047C749002270310A700A7001288A
:1007600002D0042801D1052008707047C6490860EE
:10077000704741EA82115A0810B5C44B029C03EB42
:1007800002421143014341EA0460BA49091D08606D
:1007900010BDBC4908667047800140EA0170B54948
:1007A000843108607047B74988667047800140EA25
:1007B0000160B04940EA0270883108607047B14971
:1007C00008677047AF49C8647047AA4A083213687F
:1007D000084323F0EC63184310607047A54A0832C1
:1007E0001368084323F07843184310607047A14A08
:1007F0000832116821F003010143116070479D48E0
:100800000830006800F00C0070479A4A08321168FE
:1008100021F0F001014311607047964A08321168D7
:1008200021F4E051014311607047924908310A6890
:1008300022F4604242EAC0000860704770B58D4AF9
:1008400008321168924C11F00C0104D06610042992
:1008500003D0082903D004601BE0066019E0854935
:10086000091D0B68C3F380550B6803F03F0315B1F6
:10087000B6FBF3F301E0B4FBF3F30C680968C4F3CF
:1008800088146343C1F30141491C4900B3FBF1F1F2
:10089000016011680F2303EA11117E4B5C5C016853
:1008A000E14041601468072505EA94241C5D21FAA3
:1008B00004F48460126805EA52329A5CD140C16047
:1008C00070BDC0F30121032908D16A4A08321168BA
:1008D00021F4F813704901401943116065497031E2
:1008E0000A68C0F30B0002430A6070476649443946
:1008F000086070476449403908607047674908607C
:1009000070475C4A8C321168401E21F01F01014380
:100910001160704757498C310A686FF0FF0322F469
:10092000F85203EB0020104308607047514A8C32A4
:10093000116821F440110143116070474D4A8C3217
:10094000116821F44001014311607047494A8C321B
:10095000116821F44031014311607047504908602B
:100960007047444A30320029116801D0014300E049
:100970008143116070473F4A34320029116801D029
:10098000014300E08143116070473A4A3832002940
:10099000116801D0014300E0814311607047354A7E
:1009A00040320029116801D0014300E08143116009
:1009B0007047304A44320029116801D0014300E0F9
:1009C0008143116070472B4A10320029116801D011
:1009D000014300E0814311607047264A1432002928
:1009E000116801D0014300E0814311607047214A42
:1009F00018320029116801D0014300E081431160E1
:100A000070471C4A20320029116801D0014300E0E0
:100A1000814311607047174A24320029116801D0C0
:100A2000014300E0814311607047124A50320029AF
:100A3000116801D0014300E08143116070470D4A05
:100A400054320029116801D0014300E08143116054
:100A50007047084A58320029116801D0014300E06C
:100A6000814311607047034A60320029116819D030
:100A7000014318E000380240FFFFF6EA103000247E
:100A80000030002000004742800E47420000FFFF78
:100A90000024F4001C000020FFFCFF0F5C01474213
:100AA000E0114742814311607047134A00291168E1
:100AB00001D0014300E08143116070470E4A573A6C
:100AC0000029117801D0014300E081431170704783
:100AD00009481030016841F080710160704701469B
:100AE000054A0020583A12680A4200D00120704797
:100AF00001495639087070476438024070477047A2
:100B00007047754600F028F8AE4605006946534622
:100B100020F00700854618B020B5FFF793FBBDE82D
:100B200020404FF000064FF000074FF000084FF054
:100B3000000B21F00701AC46ACE8C009ACE8C009E5
:100B4000ACE8C009ACE8C0098D4670470446AFF375
:100B500000802046FFF761FB004870472C00002012
:100B600001491820ABBEFEE72600020070474FF097
:100B70004070E1EE100A7047980B0008000000205A
:100B80002C000000C4010008C40B00082C00002049
:100B900064060000E0010008000000000000000002
:100BA000007A030A000000000000000001020304B4
:100BB0000607080900000000010203040102030403
:040BC0000607080913
:040000050800018965
:00000001FF
